:020000040800F2
:10000000600C0020050100080D0100080F01000828
:10001000110100081301000815010008000000008C
:1000200000000000000000000000000017010008B0
:1000300019010008000000001B01000881090008E8
:100040001F0100081F0100081F0100081F01000810
:100050001F0100081F0100081F0100081F01000800
:100060001F0100081F0100081F0100081F010008F0
:100070001F0100081F0100081F0100081F010008E0
:100080001F0100081F0100081F0100081F010008D0
:100090001F0100081F0100081F0100081F010008C0
:1000A0001F0100081F0100081F0100081F010008B0
:1000B0001F0100081F0100081F0100081F010008A0
:1000C0001F0100081F0100081F0100081F01000890
:1000D0001F010008610A00088D0A00081F010008BE
:1000E0001F0100081F0100081F010008DFF810D0E1
:1000F00000F030F80048004735100008AFF30080EA
:10010000600C00200648804706480047FEE7FEE7EF
:10011000FEE7FEE7FEE7FEE7FEE7FEE7FEE7FEE7B7
:10012000010A0008ED00000830B50B46014600202A
:100130002022012409E021FA02F59D4205D303FAA9
:1001400002F5491B04FA02F52844151EA2F101022A
:10015000F1DC30BD064C074D06E0E06840F00103DD
:1001600094E8070098471034AC42F6D3FFF7C2FF7B
:10017000241100084411000870B590B004466A4686
:1001800032210DA800F0AAFA0DA9204600F00DF8C2
:100190000DA800F05FFA401E86B231460DA800F0AF
:1001A00087FA0546284610B070BD70B504460D4666
:1001B0002188284600F00AFBA178284600F0EFFAD3
:1001C000E178284600F0EBFAE278211D284600F09D
:1001D000EEFA284600F058FA06463146284600F066
:1001E000DEFA70BD73B58EB006460FAB0122114624
:1001F000304600F0ADF86946304600F00DF8044690
:1002000044B99DF804509DF83C00854202D0072077
:1002100010B070BD2046FBE72DE9F04105460C46C5
:10022000002084F8370000270026642000F076FBC9
:1002300087E0A86800F00EFA00B982E094F8370071
:1002400000F00800C8B1A86800F0A3FA04F8360F5F
:10025000607840F010006070363C2046FFF78CFF5D
:1002600094F83610884204D000F068FB0620BDE800
:10027000F08100F063FB0020F9E794F8370000F00C
:10028000040080B1A86800F084FA211DC855781CCC
:10029000C7B2E078B84253D194F8370040F0080074
:1002A00084F837004CE094F8370000F0020088B181
:1002B000A86800F06EFAE070E0782D2803DD00F009
:1002C0003DFB0520D3E794F8370040F0040084F8A4
:1002D000370035E094F8370000F0010088B1A868D5
:1002E00000F057FAA070A0780A2803DD00F026FB82
:1002F0000420BCE794F8370040F0020084F837008F
:100300001EE03EB9A86800F044FA0646052E17D054
:10031000002615E0052E12D1A86800F03AFA46EA48
:10032000002641F60540864201D0002608E02680DE
:1003300094F8370040F0010084F8370000E0002610
:1003400000BF00F009FB00283FF473AF02208EE7E6
:10035000F0B58FB005460E4614461F4644F61240CF
:10036000ADF804008DF806608DF80740002003E02A
:100370003A5C02A90A54401CA042F9DB01A8696852
:10038000FFF713FF284600F055FD0FB0F0BD2DE933
:10039000F04102460025002600200023002400270B
:1003A00091F803C00CF00F0591F803C00CF0100C8D
:1003B000BCF1000F03D091F802C04CEA050591F89A
:1003C00000C0BCF1000F31D0146800202BE04FF0CA
:1003D000010C0CFA00F3B1F800C00CEA03069E42CF
:1003E00020D183004FF00F0C0CFA03F7BC4305FA41
:1003F00003FC4CEA040491F803C0BCF1280F06D1B9
:100400004FF0010C0CFA00FCC2F814C00AE091F89D
:1004100003C0BCF1480F05D14FF0010C0CFA00FCF1
:10042000C2F810C0401C0828D1D31460B1F800C035
:10043000BCF1FF0F34DD546800202EE000F1080C01
:100440004FF0010808FA0CF3B1F800C00CEA0306FB
:100450009E4221D183004FF00F0C0CFA03F7BC43EE
:1004600005FA03FC4CEA040491F803C0BCF1280F20
:1004700005D100F1080C08FA0CF8C2F8148091F8C4
:1004800003C0BCF1480F07D100F1080C4FF0010880
:1004900008FA0CF8C2F81080401C0828CED354602B
:1004A000BDE8F08170B5002100230F22C47804B3A9
:1004B000154C246804F4E064C4F5E064210AC1F139
:1004C0000403CA40447804FA03F1847814402143B9
:1004D00009010E4C0678A155047804F01F0501248B
:1004E000AC4005786D11AD0005F1E025C5F800417F
:1004F00009E0047804F01F050124AC40044D06789F
:10050000761145F8264070BD0CED00E000E400E0F7
:1005100080E100E002490143024A11607047000097
:100520000000FA050CED00E029B1064AD269024349
:10053000044BDA6104E0034AD2698243014BDA6179
:10054000704700000010024029B1064A9269024338
:10055000044B9A6104E0034A92698243014B9A6119
:10056000704700000010024030B500210022002436
:1005700000232D4D6D6805F00C0121B1042905D033
:10058000082923D105E0294D056022E0274D0560AB
:100590001FE0254D6D6805F47012234D6D6805F45C
:1005A0008034022505EB92421CB9214D554305606C
:1005B0000BE01D4D6D6805F400351DB11C4D554314
:1005C000056002E0194D5543056002E0174D0560D6
:1005D00000BF00BF144D6D6805F0F0010909154D0D
:1005E0006B5C0568DD4045600F4D6D6805F4E061AA
:1005F000090A104D6B5C4568DD4085600A4D6D68E9
:1006000005F46051C90A0B4D6B5C4568DD40C5605F
:10061000054D6D6805F44041890B074D6B5CC5685D
:10062000B5FBF3F5056130BD0010024000127A0001
:1006300000093D00100000202000002030B50446D5
:10064000204600F01CF80546204600F003F8281A62
:1006500080B230BD00B502469088D188884209DD5D
:10066000104600F00CF89188D388C91A491E401A28
:1006700080B200BDD0889188401A80B2F9E7014667
:100680000889401E80B27047F0B506463046FFF735
:10069000E1FF07460025002406E0A1B2304600F045
:1006A00007F82844C5B2641CBC42F6DBE8B2F0BDD2
:1006B00070B504460D462046FFF7CCFFA84201DC8A
:1006C000002070BDA0882844401C218990FBF1F2D5
:1006D00001FB120086B22068805DF2E730B50B4660
:1006E000026000218180C180591C0181002104E049
:1006F000002405686C544C1CA1B204898C42F7DCC0
:1007000030BD10B504462046FFF798FF024620464C
:10071000FFF7B5FF824201D1012010BD0020FCE7A8
:1007200010B504462046FFF789FF08B9012010BD27
:100730000020FCE730B504462046FFF7E2FF08B191
:10074000002030BDA088401C218990FBF1F201FB04
:100750001200A080A1882068455C0020A288216842
:1007600088542846EDE730B504460D462046FFF78D
:10077000D7FF10B12046FFF7DDFFE088401C21893C
:1007800090FBF1F201FB1200E080E1882068455403
:1007900030BD10B504462046FFF7CCFF10BD30B584
:1007A00004460D4629462046FFF7DDFF30BDF0B573
:1007B00007460D461646002405E0295D3846FFF73A
:1007C000D2FF601C84B2B442F7DBF0BD33B50446FF
:1007D00001AD022229462046FFF7E9FF3CBD10B5D6
:1007E00000F002F810BD00000CB500200190009050
:1007F0003348006840F480303149086000BF304819
:10080000006800F4003000900198401C01900098AE
:1008100018B90198B0F5A06FF1D12948006800F42B
:10082000003010B10120009001E0002000900098FD
:10083000012843D12348006840F010002149086096
:100840000846006820F0030008600846006840F091
:10085000020008601A484068194948600846406824
:1008600048600846406840F4806048600846406838
:1008700020F47C1048600846406840F4E810486066
:100880000846006840F08070086000BF0C480068AF
:1008900000F000700028F9D00948406820F00300FB
:1008A000074948600846406840F00200486000BFC1
:1008B0000348406800F00C000828F9D10CBD000086
:1008C000001002400020024030B50146B1F1807FA7
:1008D00001D3012030BD21F07F40401E4FF0E022C7
:1008E000506150170F22002807DA13071D0E094B1D
:1008F00000F00F04241F1D5503E013071C0E064BC8
:100900001C5400BF00204FF0E022906107201061CE
:100910000020DFE718ED00E000E400E001B5064943
:10092000009808604FF0E020006940F001004FF0AF
:10093000E021086108BD00000C00002000200549EE
:1009400008604FF0E020006920F001004FF0E02146
:10095000086170470C0000200348006808B90120B6
:1009600070470020FCE700000C00002001B503499F
:100970000098086000F02CF808BD00000C00002072
:100980000648006828B105480068401E0349086011
:1009900002E0002001490860704700000C000020C0
:1009A00010B50A4800684FF47A71B0FBF1F42046A4
:1009B000FFF78AFF08B100BFFEE74FF0E0200069B3
:1009C00020F001004FF0E021086110BD240000205C
:1009D0004FF0E020006940F001004FF0E021086195
:1009E00000BF064800680028FBD14FF0E0200069F6
:1009F00020F001004FF0E021086170470C0000205A
:100A000010B51348006840F001001149086008461D
:100A10004068104908400E494860084600680E4981
:100A200008400B4908600846006820F480200860F0
:100A30000846406820F4FE0048604FF41F008860BC
:100A4000FFF7CDFE4FF000600449086010BD0000C4
:100A5000001002400000FFF8FFFFF6FE08ED00E086
:100A600010B540F22551074800F03FF840B1054865
:100A700000F0F6F8C4B2044988682146FFF773FE17
:100A800010BD0000003801404004002010B540F2C5
:100A90002551074800F029F848B10649086800F0D8
:100AA000DFF8C4B2034988682146FFF75CFE10BD39
:100AB000004400405008002021B1828942F40052D5
:100AC000828104E082894DF6FF731A40828170476B
:100AD00002460020B1F5007F00D100BF13880B4013
:100AE0000BB1012000E00020704770B502460024E1
:100AF00000230025002040F66A16B14200D100BF55
:100B0000C1F3421501F01F03012606FA03F3012D7C
:100B100002D19689334006E0022D02D1168A334075
:100B200001E0968A33400C12012606FA04F4168876
:100B3000344013B10CB1012000E0002070BDF0B5CD
:100B40000346002400260025002040F66A17B9421B
:100B500000D100BF1846C1F3421401F01F0601275F
:100B600007FA06F5012C01D10C3004E0022C01D16A
:100B7000103000E014301AB107682F43076002E01C
:100B80000768AF430760F0BD2DE9F04786B0054622
:100B90000E460024A24600BFA1460027B08900B13E
:100BA00000BF2F462C8A4CF6FF700440F0880443A7
:100BB0002C82AC894EF6F3100440B088318908438A
:100BC000718908430443AC81AC8A4FF6FF4004406E
:100BD000B0890443AC8201A8FFF7C6FC1F488742D6
:100BE00002D1DDF810A001E0DDF80CA0A88900F426
:100BF000004040B10AEBCA0000EB0A10316849001E
:100C0000B0FBF1F807E00AEBCA0000EB0A1031680C
:100C10008900B0FBF1F86420B8FBF0F00401200972
:100C2000642101FB1089A88900F4004040B1322002
:100C300000EBC900B0FBF1F000F00700044308E04E
:100C4000322000EB09106421B0FBF1F000F00F003E
:100C500004432C8106B0BDE8F08700000038014055
:100C600001468888C0F308007047C1F308028280FB
:100C70007047000000B587B0614862490860624A69
:100C80004FF4FA716148FFF729FD614A4FF4FA7198
:100C90006048FFF723FD5F485A4988605B48486019
:100CA00001218803FFF750FC01210420FFF74CFCD1
:100CB0004FF40070ADF8180003208DF81A001820CA
:100CC0008DF81B0006A95448FFF761FB4FF48060C4
:100CD000ADF8180004208DF81B0006A94E48FFF758
:100CE00056FB4FF4E13002900020ADF80C00ADF857
:100CF0000E00ADF81000ADF814000C20ADF8120095
:100D00004FF4A060FFF706FC25208DF804000120B9
:100D10008DF805008DF806008DF8070001A8FFF793
:100D2000C1FB02A93648FFF72FFF012240F22551EF
:100D30003348FFF704FF01213148FFF7BDFE374874
:100D400037490860374A4FF4FA713748FFF7C6FC55
:100D5000364A4FF4FA713648FFF7C0FC3448304940
:100D600088603148486001214804FFF7DDFB01211C
:100D70000420FFF7E9FB0420ADF8180003208DF8EC
:100D80001A0018208DF81B0006A92348FFF7FFFA68
:100D90000820ADF8180004208DF81B0006A91E4895
:100DA000FFF7F5FA26208DF8040003208DF80500E2
:100DB0008DF8060001208DF8070001A8FFF772FBEF
:100DC0004FF4E13002900020ADF80C00ADF80E00B9
:100DD000ADF81000ADF814000C20ADF8120002A917
:100DE0000E48FFF7D1FE012240F225510B48FFF7D4
:100DF000A6FE01210948FFF75FFE07B000BD000015
:100E000000380140400400203C000020280400205D
:100E1000310200203404002000080140004400405A
:100E2000500800204C040020380800204106002013
:100E30004408002070B5044607E06068FFF77AFCBC
:100E400005462946206800F006F86068FFF702FCB6
:100E50000028F2D170BD70B504460D4629462046E3
:100E6000FFF703FF00BF80212046FFF731FE002877
:100E7000F9D070BD0FB4054B10B503A9044A029810
:100E800000F018F810BC5DF814FB00000910000811
:100E90003800002002E008C8121F08C1002AFAD159
:100EA00070477047002001E001C1121F002AFBD1EA
:100EB000704700002DE9FF4F89B09B46044600258E
:100EC00006E025280BD05A460B999047641C6D1CF0
:100ED00020780028F5D10DB02846BDE8F08F002716
:100EE000B8460122474900E0074314F8013F203B80
:100EF00002FA03F00842F7D120782E2819D114F80D
:100F0000010F47F004072A280ED06FF02F02207837
:100F1000A0F1300109290CD808EB880102EB41014E
:100F200000EB0108641CF2E70A98641C50F8048B7B
:100F30000A9020780028CED0642808D0692806D0EE
:100F400075281ED05A460B9990476D1C58E00A9997
:100F50004FF00A0901C90A91002802DA40422D2106
:100F600002E0390504D52B218DF82010012103E082
:100F7000F90704D02021F7E78A4608AE0DE00021EA
:100F8000FAE70A994FF00A0901C90A91F7E74946B9
:100F9000FFF7CAF8303106F8011D0028F7D1ADEB94
:100FA000060000F12009780701D44FF00108C84578
:100FB00002DDA8EB090000E000208046002706E0E3
:100FC00008A85A46C05D0B9990476D1C7F1C574579
:100FD000F6DB04E030205A460B9990476D1CB8F1BF
:100FE0000001A8F10108F5DC05E016F8010B5A46EE
:100FF0000B9990476D1CB9F10001A9F10109F4DCCE
:10100000641C65E70928010070B504460D4600BF61
:10101000074800680068008800F040000028F7D00A
:10102000E1B2034A12681068FFF71FFE204670BD48
:1010300004000020FFF7B4FCFFF71CFE26E014A01C
:10104000FFF718FF1348017813A0FFF713FF1148AB
:10105000017817480068FFF7C5F816490870084678
:10106000017815A0FFF706FF1248007828B9094853
:10107000017817A0FFF7FEFE04E0064801781EA0E5
:10108000FFF7F8FE4FF47A70FFF770FCD7E7000027
:101090000D0A0000080000205B494E464F5D706954
:1010A0006E6720736572766F202564200D0A00003C
:1010B00000000020090000205B494E464F5D73741C
:1010C0006174757320636F6465202564200D0A00C8
:1010D0005B494E464F5D70696E672073756363654B
:1010E00073732C20736572766F20256420656368A6
:1010F0006F200D0A000000005B4552524F525D7098
:10110000696E67206661696C2C20736572766F204A
:101110002564206E6F74206F6E6C696E65200D0AF9
:101120000000000044110008000000203C00000006
:10113000940E0008801100083C000020240C0000E0
:10114000A40E000840040020500800200000000009
:10115000000000000000000001020304010203047B
:10116000060708090204060800A24A04000000005D
:101170000000000001020304060708090000000047
:0400000508000105E9
:00000001FF
