:020000040800F2
:10000000780C0020050100080D0100080F01000810
:10001000110100081301000815010008000000008C
:1000200000000000000000000000000017010008B0
:1000300019010008000000001B010008B1140008AD
:100040001F0100081F0100081F0100081F01000810
:100050001F0100081F0100081F0100081F01000800
:100060001F0100081F0100081F0100081F010008F0
:100070001F0100081F0100081F0100081F010008E0
:100080001F0100081F0100081F0100081F010008D0
:100090001F0100081F0100081F0100081F010008C0
:1000A0001F0100081F0100081F0100081F010008B0
:1000B0001F0100081F0100081F0100081F010008A0
:1000C0001F0100081F0100081F0100081F01000890
:1000D0001F01000891150008BD1500081F01000848
:1000E0001F0100081F0100081F010008DFF810D0E1
:1000F00000F0B8FB004800479D220008AFF30080E5
:10010000780C00200648804706480047FEE7FEE7D7
:10011000FEE7FEE7FEE7FEE7FEE7FEE7FEE7FEE7B7
:1001200031150008ED000008F0B480EA0102D40F98
:100130004200B2EB410F02D20246084611464A0085
:1001400042D0C30DDDB2C1F3C752AD1A202D35DA4E
:10015000C1F3160141F4000204B15242C5F1200678
:1001600002FA06F12A411044B3EBD05F23D0C4B1A8
:10017000012DA0EBC35009DCF0BC4FF0004202EAB5
:10018000C352DBB200F5000000F098B9400000F166
:10019000807000EBC350A0F1807040EAD17049003C
:1001A00009E0490841EAC071A0EBC35000F5000026
:1001B000400800EBC350F0BC00F077B96142012267
:1001C00002EB4101001BF6E7F0BC704781F00041F3
:1001D000AAE780F00040A7E780EA010210B502F02C
:1001E0000043400022D04A001FD0010E01EB1261F3
:1001F000C0F35600C2F3560240F4000042F400027D
:10020000A0FB022000047F39140400D0401C50EAF7
:10021000124001D44000491EC2B20C0604EBD010BB
:10022000401C4008802A02D003E0002010BD20F0CE
:100230000100002900DA0020184310BD2DE9F04D1F
:1002400081EA030404F0004B21F0004514464FF00E
:10025000000A23F0004150EA050220D054EA0102CE
:100260001DD0C5F30A570246C5F31303C1F31300AB
:10027000C1F30A5640F4801543F48013A7EB060837
:10028000101BD64608F2FD3873EB050002D308F1C7
:10029000010801E092185B41B8F1000F03DA002079
:1002A0000146BDE8F08D00204FF4801106468446DB
:1002B0000EE0171B73EB050705D3121B63EB050359
:1002C00006434CEA010C49084FEA300092185B41A2
:1002D00050EA0107EDD152EA030012D082EA04008D
:1002E00083EA0501084305D0101BAB4106D2012269
:1002F000002306E000224FF0004302E06FF001020D
:1003000053101AEB06004CEB085110EB0A0041EBBE
:100310000B01BDE8F04D00F0FFB80EB5C10F80EA4B
:10032000E0700844CA07002140F233438DE80E0014
:100330000A460B4600F0FFF803B000BD00F0004293
:1003400020F00040C10DC0F3160040F400007F29EA
:1003500001DA00207047962903DCC1F19601C840FC
:1003600001E096398840002AF4D04042704720F0DE
:100370000040C10DC0F3160040F400007F2901DAEF
:1003800000207047962903DCC1F19601C8407047F0
:1003900096398840704700F0004230F000400AD0A3
:1003A000C10D01F56071C0F3160042EA0151C208A7
:1003B00040071143704700200146704701F0004399
:1003C00030B421F0004150EA010206D00A0DA2F536
:1003D0006072C1F31301002A02DC30BC00207047B8
:1003E000440F44EAC104C100E01830BC00EBC25025
:1003F00000F05BB8002801DBC0F10040002901DB00
:10040000C1F1004181427047002801DBC0F100408A
:10041000002901DBC1F100418842704730B50B462D
:10042000014600202022012409E021FA02F59D4224
:1004300005D303FA02F5491B04FA02F52844151EF8
:10044000A2F10102F1DC30BD2DE9F05F054600208C
:1004500092469B4688460646814640241BE0284635
:1004600041464746224600F01EFA53465A46C01AF5
:10047000914110D311461846224600F005FA2D1A74
:1004800067EB01084F4622460120002100F0FCF9ED
:1004900017EB00094E41201EA4F10104DFDC4846A1
:1004A00031462A464346BDE8F09F0029A8BF704761
:1004B000401C490008BF20F00100704710B4B0FA9A
:1004C00080FC00FA0CF050EA010404BF10BC704735
:1004D00049B1CCF1200421FA04F411FA0CF118BF4F
:1004E000012121430843A3EB0C01CB1D4FEA00611E
:1004F0004FEA102042BF002010BC704700EBC350F1
:1005000010440029A4BF10BC7047401C490008BF1C
:1005100020F0010010BC704710B5141E73F10004E8
:1005200008DA401C41F1000192185B411A4301D1E5
:1005300020F0010010BD2DE9F04D92469B4611B10F
:10054000B1FA81F202E0B0FA80F22032904600F077
:100550009BF904460F4640EA0A0041EA0B01534664
:100560005A46084313D0114653EA010019D0C8F186
:100570004002504600F097F905460E46504659464F
:10058000424600F081F9084305D0012004E02046EE
:100590003946BDE8F08D0020054346EAE0762C435D
:1005A00037430A986305E40AA0EB08000022FD0A1D
:1005B00044EA47540A3002D500200146E9E7010524
:1005C00010196941DDE9084500196941BDE8F04DA0
:1005D000A2E72DE9FE4F804681EA0300C00F0C46DA
:1005E000009021F0004123F00045B8EB0200A94142
:1005F00005D24046214690461C460B46024623F053
:100600000040104347D0270DC7F30A00C3F30A5137
:100610000290401A019040286BDAC3F3130040F4B3
:10062000801B0098924620B10023D2EB030A63EBB3
:100630000B0B01985946C0F14002504600F024F9D6
:1006400006460D4650465946019A00F03CF910EB1B
:1006500008006141002487EA115284EAE7731A43D3
:1006600040D0009A62B3019A012A4FEA075215DC82
:10067000001B61EB02014FF0004202EA0752CDE994
:100680000042001C41F5801132462B46FFF753FF14
:1006900003B0BDE8F08F40462146F9E7001B61EB4F
:1006A0000201001C41F5801300185B412018A2F5DF
:1006B000001747EB030140EAD570B6196D4111E010
:1006C0006D084FEA360645EAC0754FEA0752001B2F
:1006D00061EB0201001C41F5801149084FEA30002E
:1006E0000019514132462B4603B0BDE8F04FFFF7E9
:1006F00013BF0098012240000023D0EB020263EBFD
:10070000E073009821464FEAE074B8EB000061EB1B
:100710000401E9E783F000435BE781F0004158E71B
:100720002DE9FE4F81EA030404F0004421F000416A
:1007300000944FF0000B23F0004350EA01045ED018
:1007400052EA03045BD0C3F30A54C1F30A552C44A4
:10075000A4F2F3340194A0FB0254C1F3130141F459
:100760008011C3F3130343F4801301FB024400FB25
:10077000034E840A970A44EA815447EA8357A4FB4C
:10078000076802958D0A05FB07854FEA932C04FB49
:100790000C542705029D4FEA065847EA1637B5EB79
:1007A00008056EEB070C870E920E47EA811742EAA6
:1007B0008312A7FB0201B6EB0B0164EB00042B0DC7
:1007C00043EA0C335E1844EB1C50DA465146E7FB13
:1007D0000201C5F313044FEA0B3343EA14534FEA03
:1007E0000432019C43EA0603A4F10C040294009C29
:1007F000CDE900B4FFF79FFE03B0BDE8F08F002005
:100800000146F9E7C1F30A52C1F3130140F2FF3385
:1008100041F480119A4202DA00200146704740F20A
:1008200033439A42A2F2334202DC524200F03BB818
:1008300000F02AB830B5041E71F1000404DB4FF05B
:100840000044404264EB0101141E73F1000405DB17
:100850001C464FF00043524263EB0403994208BF29
:10086000904230BD064C074D06E0E06840F00103C1
:1008700094E8070098471034AC42F6D3FFF73AFCEF
:100880000025000820250008202A04DB203A00FA71
:1008900002F1002070479140C2F1200320FA03F3D7
:1008A000194390407047202A04DB203A21FA02F0D5
:1008B0000021704721FA02F3D040C2F1200291409A
:1008C000084319467047202A06DBCB17203A41FA25
:1008D00002F043EAE07306E041FA02F3D040C2F1CD
:1008E0002002914008431946704770B590B0044605
:1008F0006A4632210DA800F06FFC0DA9204600F0D9
:100900000DF80DA800F024FC401E86B231460DA85B
:1009100000F04CFC0546284610B070BD70B504468A
:100920000D462188284600F0EAFCA178284600F010
:10093000B4FCE178284600F0B0FCE278211D28469E
:1009400000F0B3FC284600F01DFC06463146284660
:1009500000F0A3FC70BD00002DE9F74F90B01446E5
:1009600001200F9011AB01220A21109800F002F92A
:1009700001A9109800F062F88346BBF1000F1DD169
:100980009DF808909DF84400814503D0072013B0DE
:10099000BDE8F08F9DF809109DF80A0041EA00209B
:1009A0000FFA80FA5046FFF7B8FC07460022044BC6
:1009B000FFF744FC0546FFF701FD20605846E6E7D7
:1009C000000024402DE9F74F90B0144601200F900D
:1009D00011AB01221021109800F0CCF801A9109859
:1009E00000F02CF88346BBF1000F23D19DF808904E
:1009F0009DF84400814503D0072013B0BDE8F08F77
:100A00009DF809109DF80A0041EA00219DF80B00AD
:100A100041EA00419DF80C0041EA006A5046FFF7A8
:100A20007CFC07460022044BFFF708FC0546FFF755
:100A3000C5FC20605846E0E7000024402DE9F04165
:100A400005460C46002084F8370000270026642065
:100A500000F0FCFC87E0A86800F07AFB00B982E0B7
:100A600094F8370000F00800C8B1A86800F00FFC47
:100A700004F8360F607840F010006070363C204675
:100A8000FFF733FF94F83610884204D000F0EEFCF4
:100A90000620BDE8F08100F0E9FC0020F9E794F8B9
:100AA000370000F0040080B1A86800F0F0FB211DC1
:100AB000C855781CC7B2E078B84253D194F83700D3
:100AC00040F0080084F837004CE094F8370000F05C
:100AD000020088B1A86800F0DAFBE070E0782D2809
:100AE00003DD00F0C3FC0520D3E794F8370040F0A5
:100AF000040084F8370035E094F8370000F0010076
:100B000088B1A86800F0C3FBA070A078112803DDAD
:100B100000F0ACFC0420BCE794F8370040F0020081
:100B200084F837001EE03EB9A86800F0B0FB064626
:100B3000052E17D0002615E0052E12D1A86800F06A
:100B4000A6FB46EA002641F60540864201D0002673
:100B500008E0268094F8370040F0010084F8370060
:100B600000E0002600BF00F08FFC00283FF473AFC8
:100B700002208EE7F0B58FB005460E4614461F469C
:100B800044F61240ADF804008DF806608DF8074079
:100B9000002003E03A5C02A90A54401CA042F9DBA1
:100BA00001A86968FFF7BAFE284600F0DBFE0FB027
:100BB000F0BD00002DE9F04F87B006460F46144601
:100BC0001D46DDE910894FF00B0B04AA0B2101A88B
:100BD00000F002FB1F492046FFF716FC01D21D4C16
:100BE00005E01D492046FFF705FC00D21A4CB5F57B
:100BF0007A1F00D9194C394601A800F04EFB214656
:100C00001748FFF7E9FA0090FFF798FB8246514634
:100C100001A800F059FB294601A800F067FB0FFA74
:100C200088F101A800F059FB0DF111030B220D21F1
:100C30003046FFF79FFFB9F1000F08D0012322468D
:100C40003946304600F0F0F807B0BDE8F08F0020DC
:100C5000FAE700000000B4480000B4C800007A4A77
:100C6000000020412DE9F04F8BB0804689461446A4
:100C70001D4614AE96E8C00C0F200A9006AA0F215C
:100C800003A800F0A9FA27492046FFF7BDFB01D2CF
:100C9000244C05E024492046FFF7ACFB00D2224C4F
:100CA000B5F57A1F01D94FF47A15142E00DA1426FF
:100CB000142F00DA1427494603A800F0EEFA214663
:100CC0001A48FFF789FA0190FFF738FB01460290B6
:100CD00003A800F0F9FA294603A800F007FB314603
:100CE00003A800F00CFB394603A800F008FB0FFA3C
:100CF0008AF103A800F0F1FA0DF119030F220E2179
:100D00004046FFF737FFBBF1000F08D00123224612
:100D10004946404600F088F80BB0BDE8F08F00204F
:100D2000FAE700000000B4480000B4C80000204109
:100D30002DE9F04F89B08046894614461D46DDF8FE
:100D400054A0DDE912670D20089004AA0D2101A826
:100D500000F042FA30492046FFF756FB01D22E4CF4
:100D600005E02E492046FFF745FB00D22B4C4FF003
:100D70007E512846FFF73EFB02D24FF07E5505E03C
:100D800027492846FFF740FB00D2254D142E00DAF4
:100D90001426142F00DA1427494601A800F07DFA22
:100DA00021462048FFF718FA0090FFF7C7FA83465C
:100DB000594601A800F088FA29461A48FFF70CFAAC
:100DC0000090FFF7D4FA1FFA80FB594601A800F003
:100DD00096FA314601A800F092FA394601A800F0CF
:100DE0008EFA149801B201A800F077FA0DF1110300
:100DF0000D220F214046FFF7BDFEBAF1000F08D0CB
:100E0000012322464946404600F00EF809B0BDE8ED
:100E1000F08F0020FAE700000000B4480000B4C8DA
:100E200000803B44000020412DE9F84F81468A466E
:100E300015461E46002727E02EB16A465146484611
:100E4000FFF7C0FD04E06A4651464846FFF784FDBF
:100E500028460099FFF7BAF9804628F0004400BF01
:100E60004FF07E512046FFF7C5FA02D80020BDE8BA
:100E7000F88F781C87B242F21070874201DB0120A4
:100E8000F5E7642000F00AFBD6E72DE9F0410246C1
:100E900000250026002000230024002791F803C02D
:100EA0000CF00F0591F803C00CF0100CBCF1000F12
:100EB00003D091F802C04CEA050591F800C0BCF1DE
:100EC000000F31D0146800202BE04FF0010C0CFA19
:100ED00000F3B1F800C00CEA03069E4220D1830063
:100EE0004FF00F0C0CFA03F7BC4305FA03FC4CEA75
:100EF000040491F803C0BCF1280F06D14FF0010C97
:100F00000CFA00FCC2F814C00AE091F803C0BCF16E
:100F1000480F05D14FF0010C0CFA00FCC2F810C0CC
:100F2000401C0828D1D31460B1F800C0BCF1FF0FF9
:100F300034DD546800202EE000F1080C4FF0010869
:100F400008FA0CF3B1F800C00CEA03069E4221D166
:100F500083004FF00F0C0CFA03F7BC4305FA03FCB7
:100F60004CEA040491F803C0BCF1280F05D100F14C
:100F7000080C08FA0CF8C2F8148091F803C0BCF110
:100F8000480F07D100F1080C4FF0010808FA0CF8DF
:100F9000C2F81080401C0828CED35460BDE8F08110
:100FA00070B5002100230F22C47804B3154C2468C7
:100FB00004F4E064C4F5E064210AC1F10403CA400A
:100FC000447804FA03F184781440214309010E4C5B
:100FD0000678A155047804F01F050124AC4005787B
:100FE0006D11AD0005F1E025C5F8004109E0047878
:100FF00004F01F050124AC40044D0678761145F835
:10100000264070BD0CED00E000E400E080E100E06F
:1010100002490143024A1160704700000000FA05CE
:101020000CED00E029B1064AD2690243044BDA61B3
:1010300004E0034AD2698243014BDA617047000041
:101040000010024029B1064A92690243044B9A619A
:1010500004E0034A92698243014B9A6170470000A1
:101060000010024030B500210022002400232D4D45
:101070006D6805F00C0121B1042905D0082923D1A0
:1010800005E0294D056022E0274D05601FE0254D54
:101090006D6805F47012234D6D6805F480340225E7
:1010A00005EB92421CB9214D554305600BE01D4DE7
:1010B0006D6805F400351DB11C4D5543056002E017
:1010C000194D5543056002E0174D056000BF00BF94
:1010D000144D6D6805F0F0010909154D6B5C05684C
:1010E000DD4045600F4D6D6805F4E061090A104D63
:1010F0006B5C4568DD4085600A4D6D6805F46051A4
:10110000C90A0B4D6B5C4568DD40C560054D6D68D7
:1011100005F44041890B074D6B5CC568B5FBF3F5E1
:10112000056130BD0010024000127A0000093D0048
:10113000280000203800002030B50446204600F08A
:101140001CF80546204600F003F8281A80B230BD8E
:1011500000B502469088D188884209DD104600F02B
:101160000CF89188D388C91A491E401A80B200BD74
:10117000D0889188401A80B2F9E701460889401E5C
:1011800080B27047F0B506463046FFF7E1FF0746EC
:101190000025002406E0A1B2304600F007F82844FC
:1011A000C5B2641CBC42F6DBE8B2F0BD70B50446C3
:1011B0000D462046FFF7CCFFA84201DC002070BDA1
:1011C000A0882844401C218990FBF1F201FB120009
:1011D00086B22068805DF2E730B50B4602600021E0
:1011E0008180C180591C0181002104E00024056830
:1011F0006C544C1CA1B204898C42F7DC30BD10B594
:1012000004462046FFF798FF02462046FFF7B5FF49
:10121000824201D1012010BD0020FCE710B5044638
:101220002046FFF789FF08B9012010BD0020FCE728
:1012300030B504462046FFF7E2FF08B1002030BD7C
:10124000A088401C218990FBF1F201FB1200A080D4
:10125000A1882068455C0020A2882168885428461F
:10126000EDE730B504460D462046FFF7D7FF10B135
:101270002046FFF7DDFFE088401C218990FBF1F25A
:1012800001FB1200E080E1882068455430BD10B5B4
:1012900004462046FFF7CCFF10BD30B504460D468E
:1012A00029462046FFF7DDFF30BDF0B507460D4665
:1012B0001646002405E0295D3846FFF7D2FF601C82
:1012C00084B2B442F7DBF0BD33B5044601AD04226D
:1012D00029462046FFF7E9FF3CBD33B5044601AD82
:1012E000022229462046FFF7E0FF3CBD33B5044605
:1012F00001AD042229462046FFF7D7FF3CBD33B598
:10130000044601AD022229462046FFF7CEFF3CBD30
:1013100010B500F001F810BD0CB500200190009050
:101320003348006840F480303149086000BF3048DD
:10133000006800F4003000900198401C0190009873
:1013400018B90198B0F5A06FF1D12948006800F4F0
:10135000003010B10120009001E0002000900098C2
:10136000012843D12348006840F01000214908605B
:101370000846006820F0030008600846006840F056
:10138000020008601A4840681949486008464068E9
:1013900048600846406840F48060486008464068FD
:1013A00020F47C1048600846406840F4E81048602B
:1013B0000846006840F08070086000BF0C48006874
:1013C00000F000700028F9D00948406820F00300C0
:1013D000074948600846406840F00200486000BF86
:1013E0000348406800F00C000828F9D10CBD00004B
:1013F000001002400020024030B50146B1F1807F6C
:1014000001D3012030BD21F07F40401E4FF0E0228B
:10141000506150170F22002807DA13071D0E094BE1
:1014200000F00F04241F1D5503E013071C0E064B8C
:101430001C5400BF00204FF0E02290610720106193
:101440000020DFE718ED00E000E400E001B5064908
:10145000009808604FF0E020006940F001004FF074
:10146000E021086108BD000024000020002005499B
:1014700008604FF0E020006920F001004FF0E0210B
:1014800008617047240000200348006808B9012063
:1014900070470020FCE700002400002001B503494C
:1014A0000098086000F02CF808BD0000240000201F
:1014B0000648006828B105480068401E03490860D6
:1014C00002E000200149086070470000240000206D
:1014D00010B50A4800684FF47A71B0FBF1F4204669
:1014E000FFF78AFF08B100BFFEE74FF0E020006978
:1014F00020F001004FF0E021086110BD3C00002009
:101500004FF0E020006940F001004FF0E021086159
:1015100000BF064800680028FBD14FF0E0200069BA
:1015200020F001004FF0E021086170472400002006
:1015300010B51348006840F00100114908600846E2
:101540004068104908400E494860084600680E4946
:1015500008400B4908600846006820F480200860B5
:101560000846406820F4FE0048604FF41F00886081
:10157000FFF7CEFE4FF000600449086010BD000088
:10158000001002400000FFF8FFFFF6FE08ED00E04B
:1015900010B540F22551074800F03FF840B105482A
:1015A00000F0F6F8C4B2044988682146FFF759FEF6
:1015B00010BD0000003801405804002010B540F272
:1015C0002551074800F029F848B10649086800F09D
:1015D000DFF8C4B2034988682146FFF742FE10BD18
:1015E000004400406808002021B1828942F4005282
:1015F000828104E082894DF6FF731A408281704730
:1016000002460020B1F5007F00D100BF13880B40D7
:101610000BB1012000E00020704770B502460024A5
:1016200000230025002040F66A16B14200D100BF19
:10163000C1F3421501F01F03012606FA03F3012D41
:1016400002D19689334006E0022D02D1168A33403A
:1016500001E0968A33400C12012606FA04F416883B
:10166000344013B10CB1012000E0002070BDF0B592
:101670000346002400260025002040F66A17B942E0
:1016800000D100BF1846C1F3421401F01F06012724
:1016900007FA06F5012C01D10C3004E0022C01D12F
:1016A000103000E014301AB107682F43076002E0E1
:1016B0000768AF430760F0BD2DE9F04786B00546E7
:1016C0000E460024A24600BFA1460027B08900B103
:1016D00000BF2F462C8A4CF6FF700440F08804436C
:1016E0002C82AC894EF6F3100440B088318908434F
:1016F000718908430443AC81AC8A4FF6FF40044033
:10170000B0890443AC8201A8FFF7ACFC1F488742B4
:1017100002D1DDF810A001E0DDF80CA0A88900F4EA
:10172000004040B10AEBCA0000EB0A1031684900E2
:10173000B0FBF1F807E00AEBCA0000EB0A103168D1
:101740008900B0FBF1F86420B8FBF0F00401200937
:10175000642101FB1089A88900F4004040B13220C7
:1017600000EBC900B0FBF1F000F00700044308E013
:10177000322000EB09106421B0FBF1F000F00F0003
:1017800004432C8106B0BDE8F0870000003801401A
:1017900001468888C0F308007047C1F308028280C0
:1017A0007047000000B587B0614862490860624A2E
:1017B0004FF4FA716148FFF70FFD614A4FF4FA7177
:1017C0006048FFF709FD5F485A4988605B484860F8
:1017D00001218803FFF736FC01210420FFF732FCCA
:1017E0004FF40070ADF8180003208DF81A0018208F
:1017F0008DF81B0006A95448FFF747FB4FF48060A3
:10180000ADF8180004208DF81B0006A94E48FFF71C
:101810003CFB4FF4E13002900020ADF80C00ADF835
:101820000E00ADF81000ADF814000C20ADF8120059
:101830004FF4A060FFF7ECFB25208DF80400012099
:101840008DF805008DF806008DF8070001A8FFF758
:10185000A7FB02A93648FFF72FFF012240F22551CE
:101860003348FFF704FF01213148FFF7BDFE374839
:1018700037490860374A4FF4FA713748FFF7ACFC34
:10188000364A4FF4FA713648FFF7A6FC344830491F
:1018900088603148486001214804FFF7C3FB0121FB
:1018A0000420FFF7CFFB0420ADF8180003208DF8CB
:1018B0001A0018208DF81B0006A92348FFF7E5FA47
:1018C0000820ADF8180004208DF81B0006A91E485A
:1018D000FFF7DBFA26208DF8040003208DF80500C1
:1018E0008DF8060001208DF8070001A8FFF758FBCE
:1018F0004FF4E13002900020ADF80C00ADF80E007E
:10190000ADF81000ADF814000C20ADF8120002A9DB
:101910000E48FFF7D1FE012240F225510B48FFF798
:10192000A6FE01210948FFF75FFE07B000BD0000D9
:1019300000380140580400205400002040040020DA
:10194000490200204C0400200008014000440040EF
:101950006808002064040020500800205906002078
:101960005C08002070B5044607E06068FFF760FC83
:1019700005462946206800F006F86068FFF7E8FB96
:101980000028F2D170BD70B504460D4629462046A8
:10199000FFF703FF00BF80212046FFF731FE00283C
:1019A000F9D070BD0FB4054B10B503A9044A0298D5
:1019B00000F0DAF810BC5DF814FB0000712200089A
:1019C0005000002002E008C8121F08C1002AFAD106
:1019D00070477047002001E001C1121F002AFBD1AF
:1019E000704700002DE9FF5F82B00021DDE904307F
:1019F000020DDDF840B0034318D044F61050A2F2B7
:101A0000FF3242431514119801281FD0A5EB0B009B
:101A1000401C5FEA000A4FF000064E4FDFF8389195
:101A2000B046504615D5CAF1000413E011980124C0
:101A30004AA3012801D16FEA0B010298119AC0E96B
:101A40000031C0E9024206B0BDE8F09FCBF10000D2
:101A5000DFE704460021404A491842EB0450CDE933
:101A6000001012E0E00707D032463B4640464946A8
:101A7000FEF756FE8046894632463B4610461946DA
:101A8000FEF74EFE06460F466410002CEAD1DDE953
:101A90000401DDE90023BAF1000F06DAFEF740FE8B
:101AA00042464B46FEF73CFE05E0FEF7C7FB4246CA
:101AB0004B46FEF7C3FB04460E460022284BFEF7BA
:101AC000B9FE03D84FF0FF30014607E00022254B56
:101AD00020463146FEF77DFDFEF794FE102409E016
:101AE000002C0ADB0A220023FEF7AEFC039B3032F7
:101AF0001A55641E50EA0102F2D1641C039AC4F123
:101B000011031444119A012A03D0012208430DD174
:101B10000AE0084304D000204FF0110B119072E747
:101B2000A3EB0B056D1E0DE05B4504DD4FF00002DD
:101B300005F1010504E003DA4FF00002A5F101050B
:101B4000002AECD002981199C0E90231C0E90045A1
:101B500079E70000000014400000F03F3000000072
:101B60000000F0430000E03F2DE9FF4F95B09A469A
:101B7000884606460025EEE1252877D10024274631
:101B8000F94A0121039400E0044316F8013F203B89
:101B900001FA03F01042F7D130782A2811D06FF003
:101BA0002F033078A0F13002092A16D8039A44F0A6
:101BB000020402EB820203EB42021044761C039003
:101BC000EFE758F8042B0392002A03DA504244F45A
:101BD0000054039044F00204761C30782E2816D16D
:101BE00016F8010F44F004042A280DD06FF02F02DC
:101BF0003078A0F13003092B09D807EB870302EBFB
:101C00004303C718761CF3E758F8047B761C30783A
:101C10006C280FD006DC4C2817D068280DD06A2815
:101C200014D104E0742810D07A280FD10DE044F4C8
:101C300000140AE044F4801401E044F44014727883
:101C4000824202D104F58014761C761C3078662816
:101C50000BD013DC582877D009DC002875D0452834
:101C6000F6D04628F4D047281AD193E118E063282B
:101C700035D0642879D0652812D18BE1702873D0D3
:101C800008DC6728F1D069286FD06E280DD06F2846
:101C900006D1ACE073282CD0752874D0782853D0A6
:101CA0005246179990476D1C54E1C4F30250022824
:101CB00009D003280DD0D8F8001004280DD00D60ED
:101CC00008F1040846E1D8F80010EA17C1E900520B
:101CD000F6E7D8F800100D80F2E70D70F0E718F87D
:101CE000041B8DF8001000208DF80100EB46012048
:101CF00003E058F804BB4FF0FF3061074FF00001DC
:101D000002D40DE009F101018946B9420FDA81459B
:101D1000F8DB1BF809100029F4D108E009F10101F2
:101D200089468142FADB1BF809100029F6D1039895
:101D30005346A0EB090721463846179A00F080FA6F
:101D4000284400EB090507E044E008E10DE01BF83A
:101D5000010B524617999047B9F10109F7D2534642
:101D600021463846179AF2E039E00A21C4F30252BC
:101D70004FF0000B0091022A06D058F8040BC1174F
:101D8000032A09D00AE023E008F1070020F0070247
:101D9000F2E80201904605E000B2C117042A01D121
:101DA00040B2C117002906DA0A460021404261EB21
:101DB00002012D2202E0220504D52B228DF80420F9
:101DC000012203E0E20701D02022F7E7914657E025
:101DD0000A2100E010214FF0000B00910BE01021D0
:101DE0004FF0000B44F004040827009103E00820A2
:101DF0004FF0000B0090C4F30252022A05D058F8AD
:101E0000040B0021032A08D008E008F1070020F0A5
:101E10000702F2E80201904603E080B2042A00D1F2
:101E2000C0B24FF0000922072AD53278702A07D0B5
:101E3000DDF800C08CF0100C5CEA0B0C05D00EE055
:101E400040228DF80420012208E050EA010306D068
:101E500030238DF804308DF8052002229146009B36
:101E600083F0080353EA0B030AD150EA010201D1BF
:101E7000620705D530228DF804204FF001097F1E3E
:101E80003278582A04D039A20C920CAA02920BE0A4
:101E90003BA2F9E75B46009AFEF7D6FA0C9B9B5CE7
:101EA000029A521E0292137050EA0102F2D1029875
:101EB00004A9081A00F1200B600702D524F480342D
:101EC00000E001275F4502DDA7EB0B0000E00020EA
:101ED00000EB0B01009003984944401A0390E00383
:101EE00006D453462146179A039800F0A9F90544F1
:101EF000002706E001A85246C05D179990476D1C67
:101F00007F1C4F45F6DBE0030CD553462146179A5C
:101F1000039800F095F9054404E0302052461799E3
:101F200090476D1C0099481E00900029F5DC08E0E0
:101F30000298029952460078491C029117999047DD
:101F40006D1CBBF10001ABF1010BF1DC5BE100F0BA
:101F500065F90544761C307800287FF40DAE19B081
:101F60002846BDE8F08F00000928010030313233E7
:101F700034353637383961626364656600000000C5
:101F800030313233343536373839414243444546AF
:101F900000000000600700D4062708F1070020F0C9
:101FA0000700F0E80223804603F0004C5FEA0C00D3
:101FB00001D097A009E0200501D596A005E0E00733
:101FC00001D095A001E0AFF24C001390307823F0DF
:101FD000004365280CD006DC452809D046281DD0D2
:101FE00047287FD13BE0662818D067287AD136E0B1
:101FF0000021112F01DB112000E0781CCDE9000148
:1020000004A90CA8FFF7EEFCDDE90D010C9A4FF0D6
:10201000000B07F10109109200914EE04FF00040D3
:102020000097CDE9011004A90CA8FFF7DBFCDDE95E
:102030000D020C9B0F994FF0000B914610930092EC
:1020400011B9791C00EB0109B7EB090003D4C0F109
:10205000FF3B07F10109A9EB0700019042E0012FC6
:1020600000DA01270021112F01DD112000E03846A0
:10207000CDE9000104A90CA8FFF7B4FCDDE90D01CE
:102080000C9A00914FF0000BB946109221070FD423
:10209000009A4A4503DA914601E0A9F10109B9F134
:1020A000010F05DD109AA9F10101515C3029F4D02E
:1020B000B84202DA10F1040F03DA0121CDE9011070
:1020C00010E0002803DC8344A9EB000102E0411C7E
:1020D000494500DD8946A0EB0B00401C01904FF004
:1020E00000400290200705D40198484502DB4FF0DC
:1020F000FF30019000208DF84B0002980DF14B0746
:10210000B0F1004F25D002200C902B200D900298AA
:1021100000280CDA404202902D200D9007E00A21A1
:102120000298FEF77BF93031029007F8011D0C99F7
:10213000481E0C900029F2DC02980028EFD1791E8D
:102140000D980870307800F0200040F0450007F846
:10215000020D11A8C01BC01D02901398007800B199
:10216000012000EB0901019801EBE07102980144A4
:102170000398401A401E0390E00306D453462146BC
:10218000179A039800F05CF805441398007818B18A
:102190005246179990476D1CE00323D553462146BC
:1021A000179A039800F04CF805441BE0BBF1000FB0
:1021B00007DB0098584504DD1098179910F80B00BC
:1021C00001E0179930205246904701980BF1010B1E
:1021D000401E05F10105019004D12E2052461799A9
:1021E00090476D1CB9F10001A9F10109DEDC05E0A1
:1021F00017F8010B5246179990476D1C0299481E1B
:1022000002900029F4DC53462146179A03989EE673
:102210002D0000002B000000200000002DE9F041FF
:10222000044600251E461746880404D405E03946B6
:102230002020B0476D1C641EF9D52846BDE8F0810A
:102240002DE9F041044600251E469046C80301D5FD
:10225000302700E02027880404D505E041463846B1
:10226000B0476D1C641EF9D52846BDE8F08100001A
:1022700070B504460D4600BF074800680068008836
:1022800000F040000028F7D0E1B2034A126810685D
:10229000FFF783FA204670BD040000201FB5FFF74A
:1022A00017F9FFF77FFACEE067A0FFF77BFB6C48DA
:1022B0006C4908604FF4FA606B4908606B4800781D
:1022C0006B490988CDE900106748036865480268D2
:1022D0006848017868480068FEF76CFC674A654802
:1022E000017865480068FEF76DFB64480068FEF7FA
:1022F00052F8044622460B4661A0FFF753FB4FF409
:10230000FA60FFF7CBF863A0FFF74CFB00205549BC
:1023100008605648007856490988CDE900105248AF
:102320000368504802685348017853480068FEF734
:1023300041FC524A4F4801784F480068FEF742FB83
:102340004E480068FEF727F8044622460B464CA08C
:10235000FFF728FB4FF4FA60FFF7A0F852A0FFF751
:1023600021FB59483F4908604FF47A703E490860A4
:10237000642056490880C820554908803B480078A9
:102380003B490988524A1288504B1B88CDE90032DC
:10239000CDE90210344803683248026835480178B4
:1023A00035480068FEF75EFC344A3248017832480E
:1023B0000068FEF707FB31480068FDF7ECFF0446B4
:1023C00022460B462EA0FFF7EDFA4FF4FA60FFF716
:1023D00065F840A0FFF7E6FA4648224908604648FB
:1023E00046490860642039490880C8203849088077
:1023F0001E4800781E490988354A1288334B1B88CD
:10240000CDE90032CDE902103C4803681548026866
:102410001848017818480068FEF78AFC174A1548E2
:10242000017815480068FEF7CDFA14480068FDF7FA
:10243000B2FF044622460B4611A0FFF7B3FA4FF451
:10244000FA60FFF72BF82FE74D5475726E20474F57
:10245000544F3A203732302E30660D0A000000000B
:10246000000034440C000020100000201A0000205E
:10247000180000200800002000000020200000209C
:1024800043757220416E676C653A20252E31660DCA
:102490000A0000004D5475726E20474F544F3A2089
:1024A000302E30660D0A00004D5475726E2B496E49
:1024B00074657276616C20474F544F3A202D313845
:1024C000302E30660D0A0000000034431C0000204E
:1024D0001E0000204D5475726E2B56656C6F63693B
:1024E000747920474F544F3A202D3138302E3066C2
:1024F0000D0A0000000034C30000C8421400002090
:10250000202500080000002054000000C419000825
:102510007425000854000020240C0000D419000881
:10252000580400206808002000000000000000009F
:10253000000000000000000000000100000000009A
:102540000000000000000000000000000102030481
:1025500001020304060708090204060800A24A044F
:102560000000000000000000010203040607080943
:042570000000000067
:0400000508000105E9
:00000001FF
